:100000003FC0A1C158C057C056C055C054C053C00E
:1000100052C051C050C04FC04EC04DC04CC04BC06C
:100020004AC049C048C009021200010100801909F4
:10003000040000000000000012011001FF00000891
:10004000C016DC050401010200010E035500530037
:1000500042006100730070001C0377007700770096
:100060002E00660069007300630068006C002E00BB
:100070006400650004030904FF88D8CD45AB8912EC
:1000800011241FBECFE5D4E0DEBFCDBF10E0A0E657
:10009000B0E0E8EAFAE102C005900D92A236B1079D
:1000A000D9F711E0A2E6B0E001C01D92AE32B1076F
:1000B000E1F7C4DCF7CCA4CFCF93DF9360910C01C0
:1000C000635067FD14C0209109018CE090E0821B11
:1000D0009109EC01C05FDE4F809108018D3209F477
:1000E00055C08091620087FD97C010920C018091ED
:1000F000610084FF3EC0609160006F3FD1F16930C4
:1001000008F46CC06850609360009091FC0088E82F
:1001100089278093FC0068E08091620087FD1CC005
:1001200020910A0130910B0186FF6DC0ADEFB0E068
:10013000F901962F84918D9331969150D9F78FEFD5
:10014000860F90E00196280F391F30930B01209302
:100150000A01C4E0C60F4DC08DEF90E05DD7682F57
:10016000893008F49FC08FEF80936000CEE1C09388
:10017000610094E186B3837031F49150D9F7109205
:100180000D0110920701DF91CF910895683009F0B9
:10019000ACCF83EC8093FC008AE5809361001092E1
:1001A00062008881807609F041C08A811092050141
:1001B0009981911146C01092060125E031E082E05C
:1001C00030930B0120930A019F81911104C09E81FD
:1001D000981708F4892F8093600087CF10926000F1
:1001E0009091FC0088E889278093FC00611194CFEE
:1001F000C4E08DEF90E0A3D0CC3009F4B8CF8FEFFE
:1002000080936000B4CFD901EDEFF0E0962F8D918F
:1002100081939150E1F793CFCE01B4D78F3F01F195
:10022000882309F462CF109260005FCFCE01EED434
:100230008F3F51F6988197FD1DC090E89093620022
:10024000CACF953089F0963009F19830D9F09930BD
:1002500099F081E09A3009F080E025E031E0B0CFFC
:100260008EE18093610041CF80930D0125E031E064
:1002700080E0A6CF8E81E1CF80930F0125E031E0B1
:1002800080E09ECF2FE031E081E09ACF9B819130DA
:10029000F1F09230A1F0933041F080E090E490933F
:1002A000620092CFC4E0C80FA4CF811118C084E7C8
:1002B00090E090930B0180930A0184E0EFCF86E2F7
:1002C00090E090930B0180930A0182E1E7CF88E3ED
:1002D00090E090930B0180930A0182E1DFCF81309F
:1002E00051F08230D1F68AE490E090930B01809334
:1002F0000A018EE0D3CF88E590E090930B018093C4
:100300000A018CE1CBCF85B7836085BF8BB7806452
:100310008BBF0895A82FB92F80E090E041E050EA0C
:10032000609530E009C02D9182279795879510F050
:1003300084279527305EC8F36F5FA8F30895EADF3E
:100340008D939D930895CF93CFB7CF93C395B09BD3
:10035000E9F7B09B09C0B09B07C0B09B05C0B09B3C
:1003600003C0B09B01C0A1C0DF93C0910901DD278C
:10037000C05FDE4FB09B02C0DF91EBCF2F930F9396
:100380001F9306B32FEF00FB20F94F933F9316B353
:100390004FEF012700FB21F93BE031C04E7F012FD9
:1003A00016B3216028C0102F4D7F2260000006B3D5
:1003B00029C04B7F2460012F000016B32BC016B359
:1003C000477F28602AC04F7E06B320612CC04F7D36
:1003D00016B320622FC04F7B06B3206432C0422781
:1003E00006B349934FEF0000102710FB20F916B316
:1003F0001370C9F1297F91F2012700FB21F906B39F
:10040000237F89F2315058F1102710FB22F916B3DF
:10041000277E79F2012700FB23F92F7C81F206B3B6
:10042000102710FB24F92F7971F200C016B30127B1
:1004300000FB25F92F7359F200C006B3102710FBFB
:1004400026F9223040F200C016B3012700FB27F93D
:10045000243028F64F77206816B30000F9CF10E457
:100460001ABF002717C03B503195C31BD04010E482
:100470001ABF0881033CE9F00B34D9F02091070141
:100480001981110F1213EDCF093641F10D3211F020
:10049000013E39F700930E013F914F911F910F914B
:1004A0002F91DF91CAB7C6FD51CFCF91CFBFCF916A
:1004B000189520910E01222379F310910C0111233C
:1004C00011F5343012F130930C0120930801109192
:1004D00009013BE0311B3093090117C000910C0169
:1004E00001308CF40AE53091610034FD10C00093B6
:1004F0006100CCEFD0E00FC02795A8F45150A9F4CB
:10050000220F0000F9CF4AE503C042ED01C0432F9E
:10051000C4E1D0E032E017B31360C09A17BB08B350
:1005200020E413E05F93012756E008BB279520F4F1
:10053000515021F4220FF9CF012756E000003B5A19
:1005400008BBD0F2279528F4515029F4220F00005F
:10055000F9CF012756E0279508BB20F4515021F42C
:10056000220FF9CF012756E02991332308BB21F64A
:100570000C7F10910D01110FC651D04008BB11F036
:100580001093070110E41ABF016017B31C7F402FBE
:100590004C7F5F9100C000C008BB17BB48BB7CCF3D
:1005A000482F8091630058E08823E9F080E0C59AE5
:1005B00032B720912B0192B7931B9217E0F347FDBE
:1005C00010C0C398440FC59832B720912B0192B741
:1005D000931B9217E0F3880FB4998F5F515039F74E
:1005E0000895C39AEFCF80E047FD18C0C398440F29
:1005F000880FB4998F5FC59A32B720912B0192B7BB
:10060000931B9217E0F3C59832B720912B0192B754
:10061000931B9217E0F3515039F70895C39AE7CF2F
:100620008FB9779BFECF8FB10895DC01CB0121E11B
:10063000B695A795979587952A95D1F720912A0188
:100640002817D9F080932A01E0912701F091280121
:100650008DE40995E0912701F091280180E009954A
:10066000E0912701F091280180912A010995E091FC
:100670002701F091280180E009940895809163009A
:1006800081110AC0809129018B7F809329018DB946
:10069000809126018EB9089580912901846080930C
:1006A00029018DB9809126018EB908958823A1F082
:1006B0008830D0F520ED32E03093280120932701D7
:1006C0008430F1F008F18630C1F030F18730A1F4C8
:1006D00083E080932B01089580E193E090932801BB
:1006E0008093270181E080932B0182E5809329018B
:1006F00081E080932601089580EC80932B0108957A
:1007000088E180932B010895823051F08330A1F766
:1007100080E380932B0108958CE080932B01089552
:1007200080E680932B01089520E133E03093280187
:10073000209327011092260191E090932B0189309C
:1007400059F070F08B3021F08C3079F690932601BF
:1007500081E580932901089582E580932901089518
:10076000883019F683E580932901089522B7909186
:100770002B0182B7821B8917E0F3089580916400F2
:1007800022B790912B018823A9F082B7821B891789
:10079000E0F3C29822B790912B0182B7821B891790
:1007A000E0F3C29A22B790912B0182B7821B89177E
:1007B000E0F3089582B7821B8917E0F3C29A22B74B
:1007C00090912B0182B7821B8917E0F3C29822B760
:1007D00090912B0182B7821B8917E0F3089587B3AC
:1007E0008C6287BBC298C598C9DF80912701909120
:1007F00028018051934021F08FEF80932A010895C2
:100800003DDF8FEF80932A01089587B3837D87BBF7
:1008100088B3837D88BB1DB808950F931F93CF9332
:10082000DF9300E010E00093640010936300C0E1E8
:1008300002C0C15039F1E0912701F09128018CEA02
:100840000995E0912701F091280183E50995E09150
:100850002701F091280180E00995D82FE091270128
:10086000F091280180E00995D335B1F01DB886DFFD
:10087000809127019091280180519340D1F6FEDEAE
:10088000C150C9F6113071F4013071F481E0DF918B
:10089000CF911F910F91089580E0DF91CF911F912B
:1008A0000F91089511E0BFCF01E0BCCFCF92DF924E
:1008B000EF92FF926B017C01B8DE8C2D8170880F66
:1008C000880F880FE0912701F09128018062099537
:1008D000D701C60129E0B695A795979587952A95E2
:1008E000D1F7E0912701F09128010995D701C601C0
:1008F000B695A79597958795E0912701F0912801E6
:100900000995E0912701F091280180E0FF90EF9098
:10091000DF90CF900994CF92DF92EF92FF920F93E6
:100920001F93CF93DF931F92CDB7DEB76B017C018E
:10093000142F29837ADE9C2D9170892F880F880FC0
:10094000880FE0912701F091280180640995D70173
:10095000C60129E0B695A795979587952A95D1F771
:10096000E0912701F09128010995D701C601B695BC
:10097000A79597958795E0912701F0912801099512
:10098000E0912701F0912801812F099529812223E7
:10099000A9F01F3789F002B71EE1C701B60186DF53
:1009A0008F3761F482B7801B8D3310F002B711507E
:1009B0001111F3CF81E003C08FE0B3D080E00F903E
:1009C000DF91CF911F910F91FF90EF90DF90CF902B
:1009D0000895CF92DF92EF92FF920F931F93CF93E0
:1009E000DF931F92CDB7DEB76B017C0149831DDE1B
:1009F000E0912701F09128018CE40995D701C60107
:100A000029E0B695A795979587952A95D1F7E09116
:100A10002701F09128010995D701C601B695A79540
:100A200097958795E0912701F09128010995E0912C
:100A30002701F091280180E0099549814F3FE1F0BD
:100A400002B71EE1C701B60131DF8F3F99F482B7CB
:100A5000801B8D3310F002B711501111F3CF81E0DC
:100A60000F90DF91CF911F910F91FF90EF90DF904A
:100A7000CF90089580E0F4CF8FE053D080E0F0CFA6
:100A80001F93CF93DF931F92CDB7DEB7182FE0915E
:100A90002701F091280180EA99830995E0912701C7
:100AA000F09128019981892F0995E0912701F09112
:100AB0002801812F0995E0912701F091280180E01C
:100AC0000F90DF91CF911F9109941F93CF93DF93E4
:100AD00000D0CDB7DEB7182FE0912701F0912801A3
:100AE00080EC6A8399830995E0912701F0912801B0
:100AF0009981892F0995E0912701F0912801812F93
:100B00000995E0912701F09128016A81862F0995C6
:100B10008EE107D080E00F900F90DF91CF911F9171
:100B20000895882349F030E022B792B7921B9C3396
:100B3000E0F33F5F3813F8CF0895BD9ABB98C39A8E
:100B400050E217D05A95E9F70895AC0188E605D030
:100B5000842F03D089E601D0852F0FD028E030E024
:100B6000382780FB869506D02A95D1F730FB02D036
:100B700000D06894BB98C39A16F0C398BB9AE091D2
:100B80002C01F0912D013197F0F7C59AE6B3E3FB04
:100B9000E0912C01F0912D013197F0F7C59808955F
:100BA00020ECE7DF46F42A95E1F780E02AE1E5DF73
:100BB0002A95E9F7DECF28E030E0DBDF869587F97C
:100BC00038272A95D1F7D5DF27F9322772F3D1DFFD
:100BD000D0CFDB01742FB9DF84E2BFDFE1DF8D937B
:100BE0007A95D1F70895DB01742FAFDF83EFB5DF7E
:100BF0008DE1B3DF84E6B1DF8D91AFDF82E7ADDF5A
:100C0000CFDF8078D9F77A9589F70895CF93DF936E
:100C1000EC0199819130F1F1923009F4BDC093302B
:100C200009F470C0943009F440C0973009F48FC0C3
:100C3000953009F41AC1963009F4B2C0983009F41D
:100C4000E9C0993009F416C19A3009F445C19B30C6
:100C500009F46AC19C3009F487C19D3009F499C137
:100C60009E3009F49BC19F3009F415C1903109F4FD
:100C70003AC19F3709F46DC1913109F4A7C192318E
:100C800009F4C3C1943109F48DC1933109F4A6C1AB
:100C900080E02FC09A9B58C08091F10007DD109230
:100CA000F000A9989CDD80E024C08091F0008111C3
:100CB00012C08B8190E0982F88272A81822BAA2747
:100CC00097FDA095BA2F8093EC009093ED00A09330
:100CD000EE00B093EF008F8190E0982F88272E814F
:100CE000822B9093EB008093EA0082E08093F200E5
:100CF0008FEF23EF30E030930B0120930A01DF9157
:100D0000CF910895E0912701F09128018A810995FA
:100D10008093F300E0912701F09128018B810995E0
:100D20008093F400E0912701F09128018C810995CE
:100D30008093F500E0912701F09128018D810995BC
:100D40008093F60084E0D5CF85E0B0DCA8CF809119
:100D5000F000811112C08B8190E0982F88272A81A2
:100D6000822BAA2797FDA095BA2F8093EC00909331
:100D7000ED00A093EE00B093EF008F8190E0982FEC
:100D800088272E81822B9093EB008093EA0083E0EA
:100D90008093F2008FEFADCF38DDA99A80E0A9CF24
:100DA0008091F000811112C08B8190E0982F8827EC
:100DB0002A81822BAA2797FDA095BA2F8093EC0059
:100DC0009093ED00A093EE00B093EF003C812D8155
:100DD000822F8F708093E700822F807F40E1849F75
:100DE000C0011124830F911D9093E9008093E800C6
:100DF00020FD8093E6008F8190E0982F88272E8138
:100E0000822B9093EB008093EA0081E08093F200C4
:100E10008FEF6FCF8091F000811112C08B8190E035
:100E2000982F88272A81822BAA2797FDA095BA2F71
:100E30008093EC009093ED00A093EE00B093EF0050
:100E40001092E9001092E8001092E7008F8190E084
:100E5000982F88272E81822B9093EB008093EA00B5
:100E600084E08093F2008FEF44CFD7DC8093F300CF
:100E700081E03FCF81E08093F0008A819B81AC814B
:100E8000BD818093EC009093ED00A093EE00B093B1
:100E9000EF0080E02ECF8B8190E0982F88272A8169
:100EA000822BAA2797FDA095BA2F8093EC009093F0
:100EB000ED00A093EE00B093EF008F8190E0982FAB
:100EC00088272E81822B9093EB008093EA0085E0A7
:100ED0008093F2008FEF0DCF8A818093F100109202
:100EE000F30081E006CF8B8190E0982F88272A813C
:100EF000822BAA2797FDA095BA2F8093EC009093A0
:100F0000ED00A093EE00B093EF008F8190E0982F5A
:100F100088272E81822B9093EB008093EA0086E055
:100F20008093F2008FEFE5CE8B8190E0982F882799
:100F30002A81822B90932D0180932C01C29ABA9A18
:100F400083E0EFDDC298A99880E1EBDDF6DD80E07B
:100F5000D0CE83E08093F3001092F4001092F5005D
:100F60001092F60084E0C5CE80ECF7DD80E0F5DD80
:100F70008AE0D7DDC29A85E0D4DDC29885E0D1DD74
:100F800087B3837D87BB88B3837D88BBA99A80E0C4
:100F9000B0CE06DE8093F30081E0ABCE8A81DDDD4A
:100FA00080E0A7CE8F8190E0982F88272E81822B1A
:100FB0009093EB008093EA008A818093E70088E0B9
:100FC0008093F200109265008FEF93CEF4D380935C
:100FD000F30081111FC0A99881E08BCEBE016E5F26
:100FE0007F4F44E050E08CEE90E042D58F8190E05E
:100FF000982F88272E81822B9093EB008093EA0014
:1010000087E08093F2008FEF74CEA99A8A8144D44E
:1010100080E06FCE81E06DCECF92DF92FF920F9392
:101020001F93CF93DF931F92CDB7DEB7D82EC92E73
:10103000F62E3091F200353009F45BC0F0F58EEFFA
:10104000830F823008F07BC0662309F495C080913D
:10105000EC009091ED00A091EE00B091EF000D2D0D
:101060001C2D2FEF260F6801C20ED11C1EC008DDFB
:10107000F80180838091EC009091ED00A091EE004A
:10108000B091EF000196A11DB11D8093EC009093EB
:10109000ED00A093EE00B093EF000C151D0509F4D0
:1010A00050C03091F2000F5F1F4F323001F7BC018A
:1010B000CD01FCDBF8018083DDCF373009F03FC084
:1010C00082D136D28091FB0081115AC06091EC0030
:1010D0007091ED008091EE009091EF002F2D4D2D3D
:1010E0005C2D32D4898367D18981882379F180E0AE
:1010F0001DC0462F682F792F8091EC009091ED0054
:1011000068DD8091EC009091ED00A091EE00B0912F
:10111000EF008F0D911DA11DB11D8093EC009093E8
:10112000ED00A093EE00B093EF008F2D0F90DF91B4
:10113000CF911F910F91FF90DF90CF9008958FEF87
:10114000F5CFF7E0FF15C0F48F2DF0CF8091EC00C4
:101150009091ED00A091EE00B091EF008F0D911DE8
:10116000A11DB11D8093EC009093ED00A093EE00C3
:10117000B093EF008F2DDACF1092F2008F2DD6CFE3
:10118000B3D2A4CFEF92FF920F931F93CF93DF932D
:10119000382F792F162F2091F200243009F465C0E2
:1011A00008F459C0263031F1283009F056C0E62E37
:1011B000F12CC09165008C2F90E0A701632F8A5914
:1011C0009F4F56D41C0F109365008091EA009091B8
:1011D000EB008E199F099093EB008093EA00892B16
:1011E00009F4D1C080E0DF91CF911F910F91FF9062
:1011F000EF900895462F682F8091EC009091ED00BC
:10120000F2DC8091EC009091ED00A091EE00B091A5
:10121000EF00810F911DA11DB11D8093EC009093F3
:10122000ED00A093EE00B093EF008091EA00909162
:10123000EB00811B91099093EB008093EA00892BCE
:1012400089F61092F20081E0DF91CF911F910F910A
:10125000FF90EF900895213041F08FEFDF91CF9113
:101260001F910F91FF90EF900895112309F482C010
:101270008091EC009091ED00A091EE00B091EF0014
:10128000C32FD72F1150AE01410F511D8A01F12CF0
:101290004DC02091E8003091E900232B09F04FC0A8
:1012A00021E04881BC01CD0136DB2091EA0030917C
:1012B000EB00215031093093EB002093EA00232BFF
:1012C000E1F41092F2008091E70081FF35C0809137
:1012D000E60090E02091E8003091E9008217930742
:1012E00059F16091EC007091ED008091EE009091C9
:1012F000EF0048816EDBFF24F3948091EC00909125
:10130000ED00A091EE00B091EF000196A11DB11D7E
:101310008093EC009093ED00A093EE00B093EF006B
:10132000C017D10741F12091F2002196213009F434
:10133000B0CF6881CADBB9CFFF24F394DECF20E0C1
:101340004881BC01CD01E7DA8091E60081508093AD
:10135000E6008111AACF6091EC007091ED008091C0
:10136000EE009091EF00488134DB8091E80080939B
:10137000E6009BCFF12C8F2DDF91CF911F910F9124
:10138000FF90EF9008951FD0D3D08091E70080FFA9
:1013900004C08091FB008111A7D16091650086E6B1
:1013A00090E0DBD08091E70081FF03C081E0809373
:1013B000FB0001D046CFC59AC29887B3846287BB31
:1013C00089E185BD0895C59AC29887B3846287BBB9
:1013D00089E085BD089585B580710895C39A089503
:1013E000C3980895C59AC29887B3846287BB08954D
:1013F00088B38B7D88BB87B3846287BB0895C2980E
:1014000087B38B7D87BBC598089586B3829581701D
:101410000895082E82958025082E8695869580252C
:101420008F5F869581700895C39860FF57C0C59AF5
:10143000C29897B3946297BB4CE04A95F1F7C39A70
:101440009CE09A95F1F728E030E091E010C0C59A51
:10145000C29847B3446247BB4CE04A95F1F7C39A40
:101460004CE04A95F1F7990F2150310959F0C39892
:10147000492F482361F748B34B7D48BB47B34462CB
:1014800047BBEACFC39861FF4CC0C59AC29887B3E7
:10149000846287BB8CE08A95F1F7C39A9CE09A95A9
:1014A000F1F7C39862FF21C0C59AC29887B38462DE
:1014B00087BB4CE04A95F1F7C39A8CE08A95F1F727
:1014C000C398C59AC29887B3846287BB8CE08A951B
:1014D000F1F7C39A9CE09A95F1F7089598B39B7D34
:1014E00098BB97B3946297BBA7CF88B38B7D88BB1B
:1014F00087B3846287BB9CE09A95F1F7C39A4CE06E
:101500004A95F1F7C39888B38B7D88BB87B3846213
:1015100087BB8CE08A95F1F7C39A9CE09A95F1F726
:10152000089588B38B7D88BB87B3846287BBB2CFB5
:101530006FEF8FEF79CF60E080E076CF982F092EA4
:1015400092959025092E9695969590259F5F91FFEF
:1015500002C066E069CF64E067CF0F931F93CF931B
:10156000DF93EC01662361F06150062F10E00F5FFE
:101570001F4F080F191F8991E1DFC017D107D9F755
:10158000DF91CF911F910F91089511C0C398C29818
:1015900097B39B7D97BBC5982CE02A95F1F7C39A2A
:1015A00096B34CE04A95F1F794FF05C08150811144
:1015B000EDCF81E0089588E090E021E030E0C3982D
:1015C000ECE0EA95F1F7C39AB499322BFCE0FA9576
:1015D000F1F7220F019799F7FB013083C398FCE0E4
:1015E000FA95F1F7C39A86B32CE02A95F1F7032E0A
:1015F00032953025032E36953695302582958170AB
:101600003F5F36953170831791F0C3989CE09A95AF
:10161000F1F7C39A82E0ECE0EA95F1F7C398FCE0B9
:10162000FA95F1F7C39A4CE04A95F1F70895C398FB
:101630008CE08A95F1F7C39AB49902C083E0EBCFAE
:101640002CE02A95F1F7C3984CE04A95F1F7C39A3C
:10165000B49B02C080E0E7CF83E0E5CFCF92DF927A
:10166000EF92FF920F931F93CF93DF9300D000D0A0
:101670001F92CDB7DEB76A012CE029836A837B8392
:101680008C839D838E010E5F1F4F7E0186E0E80EE6
:10169000F11C8CE053DF0E151F0539F0F801819124
:1016A0008F014CDF0E151F05C9F7B60188EC6DDF01
:1016B000182F60E080E0B8DE6FEF8FEFB5DE60E0FE
:1016C00080E0B2DE6FEF8FEFAFDE812F0F900F90D3
:1016D0000F900F900F90DF91CF911F910F91FF907E
:1016E000EF90DF90CF9008951F93CF93DF931F92D9
:1016F000CDB7DEB714E602C01150A1F0AE014F5FC6
:101700005F4F6FEC71E080E091E0A8DF8111F4CFD2
:10171000998197FDF1CF1092FB000F90DF91CF914F
:101720001F91089584E00F90DF91CF911F9108954C
:10173000EF92FF920F931F93CF93DF9300D000D0CF
:1017400000D0CDB7DEB72CE429836A837B838C83FA
:101750009D834E838E010E5F1F4F7E0187E0E80E52
:10176000F11C8CE403C0F80181918F01E7DE0E15B6
:101770001F05C9F780E026960FB6F894DEBF0FBEAE
:10178000CDBFDF91CF911F910F91FF90EF90089502
:10179000CF93811108C0C0E081ECD0DE8C2FCEDE6B
:1017A00080E0CF910895C9E581ECC8DE8C2FC6DEBC
:1017B00080E0CF910895EF92FF920F931F93CF9304
:1017C000DF93CDB7DEB729970FB6F894DEBF0FBE13
:1017D000CDBF89E085BD80E283BDC39A88B38B7C91
:1017E00088BB87B38C6087BB87B38F7C87BBC3986C
:1017F00088B38B7D88BB87B3846287BB89E491E023
:101800000197F1F700C00000C59AC29887B38462BF
:1018100087BBC39A94E09A95F1F76FEF8FEF04DEE0
:101820006FEF8FEF01DE81E0B3DF80EE898348E068
:1018300050E068E770E0CE01029611D18E010F5F93
:101840001F4FFE013A967F01F80181918F0176DEEC
:101850000E151F05C9F76FEF8FEFE6DD82EC6EDE28
:1018600083E06CDE6FEF8FEFDFDD3EDF811107C0BD
:10187000C59AC29897B3946297BB99E195BD299692
:101880000FB6F894DEBF0FBECDBFDF91CF911F9191
:101890000F91FF90EF900895CF93C82FC59AC298EB
:1018A00097B3946297BB89E085BD6FEF8FEFBCDD86
:1018B00080E06EDF97B3937C97BB98B3937C98BB23
:1018C000C13069F0C23049F4BB9AC39887EB9BE002
:1018D0000197F1F700C00000C39ACF910895BB9A19
:1018E000C398CF910895EF92FF920F931F93CF93D8
:1018F000DF9300D000D01F92CDB7DEB72BE629834F
:101900006A837B838C839D838E010E5F1F4F7E01D4
:1019100086E0E80EF11C8BE611DE0E151F0539F08E
:10192000F80181918F010ADE0E151F05C9F780E0CD
:101930000F900F900F900F900F90DF91CF911F910C
:101940000F91FF90EF9008956F927F928F929F92E8
:10195000AF92BF92CF92DF92EF92FF920F931F93BD
:10196000CF93DF934B015C016A01722E04E110E01A
:1019700066246A94620E43E46AEC71E080E091E0D0
:10198000D7DEC501B401AFDF81E08715B8F580EA85
:10199000D5DD862DD3DD84E2D1DDE62CF12C8FEF71
:1019A000E81AF80AEC0CFD1CE60104C02196CE15DD
:1019B000DF05B9F1BE0188ECE8DD182F8823B1F30B
:1019C00060E080E031DD6FEF8FEF2EDD60E080E0E2
:1019D0002BDD6FEF8FEF28DD015069F6812FDF914E
:1019E000CF911F910F91FF90EF90DF90CF90BF901C
:1019F000AF909F908F907F906F90089584E29EDDCE
:101A00007110CBCF60E080E00FDD6FEF8FEF0CDD6A
:101A100060E080E009DD6FEF8FEF06DD1111DCCFB4
:101A2000DDCF60E080E000DD6FEF8FEFFDDC60E098
:101A300080E0FADC6FEF8FEFF7DCD0CF12BA18BA84
:101A40008BEF81BB8FEF87BB17BA83E084BB9EEF20
:101A500095BB83BF58D478942FD32ED3FDCFFB01F1
:101A6000DC0102C005900D9241505040D8F7089516
:101A70006817790768F4FB01DC01E40FF51FA40F78
:101A8000B51F02C002900E9241505040D8F7089501
:101A900000C0FB01DC0102C001900D92415050409A
:081AA000D8F70895F894FFCF78
:021AA800FF5AE3
:00000001FF
