:100000003FC0A1C158C057C056C055C054C053C00E
:1000100052C051C050C04FC04EC04DC04CC04BC06C
:100020004AC049C048C009021200010100801909F4
:10003000040000000000000012011001FF00000891
:10004000C016DC050401010200010E035500530037
:1000500042006100730070001C0377007700770096
:100060002E00660069007300630068006C002E00BB
:100070006400650004030904FF88D8CD45AB8912EC
:1000800011241FBECFE5D4E0DEBFCDBF10E0A0E657
:10009000B0E0E0E1FAE102C005900D92A236B107AE
:1000A000D9F711E0A2E6B0E001C01D92AC32B10771
:1000B000E1F778DCABCCA4CFCF93DF9360910A015A
:1000C000635067FD14C0209107018CE090E0821B13
:1000D0009109EC01C25FDE4F809106018D3209F477
:1000E00055C08091620087FD97C010920A018091EF
:1000F000610084FF3EC0609160006F3FD1F16930C4
:1001000008F46CC06850609360009091FA0088E831
:1001100089278093FA0068E08091620087FD1CC007
:10012000209108013091090186FF6DC0ABEFB0E06E
:10013000F901962F84918D9331969150D9F78FEFD5
:10014000860F90E00196280F391F30930901209304
:100150000801C4E0C60F4DC08BEF90E011D7682FA7
:10016000893008F49FC08FEF80936000CEE1C09388
:10017000610094E186B3837031F49150D9F7109205
:100180000B0110920501DF91CF910895683009F0BD
:10019000ACCF83EC8093FA008AE5809361001092E3
:1001A00062008881807609F041C08A811092030143
:1001B0009981911146C01092040123E031E082E060
:1001C00030930901209308019F81911104C09E8101
:1001D000981708F4892F8093600087CF10926000F1
:1001E0009091FA0088E889278093FA00611194CFF2
:1001F000C4E08BEF90E0A3D0CC3009F4B8CF8FEF00
:1002000080936000B4CFD901EBEFF0E0962F8D9191
:1002100081939150E1F793CFCE0168D78F3F01F1E1
:10022000882309F462CF109260005FCFCE01A2D480
:100230008F3F51F6988197FD1DC090E89093620022
:10024000CACF953089F0963009F19830D9F09930BD
:1002500099F081E09A3009F080E023E031E0B0CFFE
:100260008EE18093610041CF80930B0123E031E068
:1002700080E0A6CF8E81E1CF80930D0123E031E0B5
:1002800080E09ECF2DE031E081E09ACF9B819130DC
:10029000F1F09230A1F0933041F080E090E490933F
:1002A000620092CFC4E0C80FA4CF811118C084E7C8
:1002B00090E0909309018093080184E0EFCF86E2FB
:1002C00090E0909309018093080182E1E7CF88E3F1
:1002D00090E0909309018093080182E1DFCF8130A3
:1002E00051F08230D1F68AE490E090930901809336
:1002F00008018EE0D3CF88E590E0909309018093C8
:1003000008018CE1CBCF85B7836085BF8BB7806454
:100310008BBF0895A82FB92F80E090E041E050EA0C
:10032000609530E009C02D9182279795879510F050
:1003300084279527305EC8F36F5FA8F30895EADF3E
:100340008D939D930895CF93CFB7CF93C395B09BD3
:10035000E9F7B09B09C0B09B07C0B09B05C0B09B3C
:1003600003C0B09B01C0A1C0DF93C0910701DD278E
:10037000C25FDE4FB09B02C0DF91EBCF2F930F9394
:100380001F9306B32FEF00FB20F94F933F9316B353
:100390004FEF012700FB21F93BE031C04E7F012FD9
:1003A00016B3216028C0102F4D7F2260000006B3D5
:1003B00029C04B7F2460012F000016B32BC016B359
:1003C000477F28602AC04F7E06B320612CC04F7D36
:1003D00016B320622FC04F7B06B3206432C0422781
:1003E00006B349934FEF0000102710FB20F916B316
:1003F0001370C9F1297F91F2012700FB21F906B39F
:10040000237F89F2315058F1102710FB22F916B3DF
:10041000277E79F2012700FB23F92F7C81F206B3B6
:10042000102710FB24F92F7971F200C016B30127B1
:1004300000FB25F92F7359F200C006B3102710FBFB
:1004400026F9223040F200C016B3012700FB27F93D
:10045000243028F64F77206816B30000F9CF10E457
:100460001ABF002717C03B503195C31BD04010E482
:100470001ABF0881033CE9F00B34D9F02091050143
:100480001981110F1213EDCF093641F10D3211F020
:10049000013E39F700930C013F914F911F910F914D
:1004A0002F91DF91CAB7C6FD51CFCF91CFBFCF916A
:1004B000189520910C01222379F310910A01112340
:1004C00011F5343012F130930A0120930601109196
:1004D00007013BE0311B3093070117C000910A016F
:1004E00001308CF40AE53091610034FD10C00093B6
:1004F0006100CAEFD0E00FC02795A8F45150A9F4CD
:10050000220F0000F9CF4AE503C042ED01C0432F9E
:10051000C4E1D0E032E017B31360C09A17BB08B350
:1005200020E413E05F93012756E008BB279520F4F1
:10053000515021F4220FF9CF012756E000003B5A19
:1005400008BBD0F2279528F4515029F4220F00005F
:10055000F9CF012756E0279508BB20F4515021F42C
:10056000220FF9CF012756E02991332308BB21F64A
:100570000C7F10910B01110FC651D04008BB11F038
:100580001093050110E41ABF016017B31C7F402FC0
:100590004C7F5F9100C000C008BB17BB48BB7CCF3D
:1005A000582F48E080E057FD18C0C398550F880FBA
:1005B000B4998F5FC59A32B72091290192B7931BE6
:1005C0009217E0F3C59832B72091290192B7931B97
:1005D0009217E0F3415039F70895C39AE7CF8FB9E6
:1005E000779BFECF8FB10895DC01CB0121E1B69559
:1005F000A795979587952A95D1F7209128012817D7
:10060000D9F080932801E0912501F09126018DE435
:100610000995E0912501F091260180E00995E0918E
:100620002501F0912601809128010995E09125018D
:10063000F091260180E009940895809127018DB9F9
:10064000809124018EB908958823A1F08830D0F5D7
:1006500020ED32E030932601209325018430F1F023
:1006600008F18630C1F030F18730A1F483E0809347
:10067000290108958FEE92E0909326018093250141
:1006800081E08093290182E58093270181E08093B6
:100690002401089580EC80932901089588E18093D6
:1006A00029010895823051F08330A1F780E38093CF
:1006B000290108958CE080932901089580E68093B4
:1006C000290108952FEE32E0309326012093250171
:1006D0001092240191E090932901893059F070F033
:1006E0008B3021F08C3079F69093240181E5809352
:1006F0002701089582E5809327010895883019F62F
:1007000083E580932701089522B79091290182B74C
:10071000821B8917E0F3089587B38C6287BBC29868
:10072000C59822B79091290182B7821B8917E0F3FF
:10073000C29A22B79091290182B7821B8917E0F3F0
:10074000C29880912501909126018F5E924019F008
:10075000109228010895809127018DB9809124017C
:100760008EB910922801089587B3837D87BB88B323
:10077000837D88BB1DB80895CF93DF93C0E2E091DD
:100780002501F09126018CEA0995E0912501F0916F
:10079000260183E50995E0912501F091260180E08D
:1007A0000995D82FE0912501F091260180E0099567
:1007B000D33561F11DB822B79091290182B7821B10
:1007C0008917E0F3C29A22B79091290182B7821B60
:1007D0008917E0F3C29822B79091290182B7821B52
:1007E0008917E0F380912501909126018F5E924058
:1007F00031F0C15021F681E0DF91CF9108958091D1
:1008000027018DB9809124018EB9F3CF80E0DF916B
:10081000CF910895CF92DF92EF92FF926B017C010E
:10082000E3DE8C2D8170880F880F880FE091250101
:10083000F091260180620995D701C60129E0B6959D
:10084000A795979587952A95D1F7E0912501F09185
:1008500026010995D701C601B695A7959795879565
:10086000E0912501F09126010995E0912501F09193
:10087000260180E0FF90EF90DF90CF900994CF9217
:10088000DF92EF92FF920F931F93CF93DF931F920C
:10089000CDB7DEB76B017C01142F2983A5DE9C2D1B
:1008A0009170892F880F880F880FE0912501F091B2
:1008B000260180640995D701C60129E0B695A79560
:1008C000979587952A95D1F7E0912501F09126011A
:1008D0000995D701C601B695A79597958795E0919B
:1008E0002501F09126010995E0912501F09126015D
:1008F000812F099529812223A9F01F3789F002B79A
:100900001EE1C701B60186DF8F3761F482B7801B15
:100910008D3310F002B711501111F3CF81E003C0F5
:100920008FE0B3D080E00F90DF91CF911F910F91B6
:10093000FF90EF90DF90CF900895CF92DF92EF92EB
:10094000FF920F931F93CF93DF931F92CDB7DEB724
:100950006B017C01498348DEE0912501F09126017D
:100960008CE40995D701C60129E0B695A79597951E
:1009700087952A95D1F7E0912501F09126010995F7
:10098000D701C601B695A79597958795E091250162
:10099000F09126010995E0912501F091260180E072
:1009A000099549814F3FE1F002B71EE1C701B60149
:1009B00031DF8F3F99F482B7801B8D3310F002B77F
:1009C00011501111F3CF81E00F90DF91CF911F9162
:1009D0000F91FF90EF90DF90CF90089580E0F4CFDB
:1009E0008FE053D080E0F0CF1F93CF93DF931F921F
:1009F000CDB7DEB7182FE0912501F091260180EAEE
:100A000099830995E0912501F09126019981892F1B
:100A10000995E0912501F0912601812F0995E0913A
:100A20002501F091260180E00F90DF91CF911F9179
:100A300009941F93CF93DF9300D0CDB7DEB7182F63
:100A4000E0912501F091260180EC6A839983099554
:100A5000E0912501F09126019981892F0995E09176
:100A60002501F0912601812F0995E0912501F09152
:100A700026016A81862F09958EE107D080E00F90CC
:100A80000F90DF91CF911F910895882349F030E0B6
:100A900022B792B7921B9C33E0F33F5F3813F8CF35
:100AA0000895BD9ABB98C39A50E217D05A95E9F7BA
:100AB0000895AC0188E605D0842F03D089E601D0E3
:100AC000852F0FD028E030E0382780FB869506D0B0
:100AD0002A95D1F730FB02D000D06894BB98C39A16
:100AE00016F0C398BB9AE0912A01F0912B0131973F
:100AF000F0F7C59AE6B3E3FBE0912A01F0912B01F0
:100B00003197F0F7C598089520ECE7DF46F42A9571
:100B1000E1F780E02AE1E5DF2A95E9F7DECF28E07A
:100B200030E0DBDF869587F938272A95D1F7D5DFC6
:100B300027F9322772F3D1DFD0CFDB01742FB9DF71
:100B400084E2BFDFE1DF8D937A95D1F70895DB0171
:100B5000742FAFDF83EFB5DF8DE1B3DF84E6B1DF64
:100B60008D91AFDF82E7ADDFCFDF8078D9F77A955F
:100B700089F70895CF93DF93EC0199819130F1F1DA
:100B8000923009F4BDC0933009F470C0943009F478
:100B900040C0973009F48FC0953009F41AC19630DF
:100BA00009F4B2C0983009F4E9C0993009F416C1CB
:100BB0009A3009F445C19B3009F46AC19C3009F4AC
:100BC00087C19D3009F499C19E3009F49BC19F30C3
:100BD00009F415C1903109F43AC19F3709F46DC188
:100BE000913109F4A7C1923109F4C3C1943109F4D8
:100BF0008DC1933109F4A6C180E02FC09A9B58C0E3
:100C00008091EF0021DD1092EE00A99885DD80E053
:100C100024C08091EE00811112C08B8190E0982F4A
:100C200088272A81822BAA2797FDA095BA2F809327
:100C3000EA009093EB00A093EC00B093ED008F815D
:100C400090E0982F88272E81822B9093E900809343
:100C5000E80082E08093F0008FEF21EF30E03093E6
:100C6000090120930801DF91CF910895E0912501BA
:100C7000F09126018A8109958093F100E091250188
:100C8000F09126018B8109958093F200E091250176
:100C9000F09126018C8109958093F300E091250164
:100CA000F09126018D8109958093F40084E0D5CFE1
:100CB00085E0CADCA8CF8091EE00811112C08B8143
:100CC00090E0982F88272A81822BAA2797FDA0954C
:100CD000BA2F8093EA009093EB00A093EC00B093BE
:100CE000ED008F8190E0982F88272E81822B9093A2
:100CF000E9008093E80083E08093F0008FEFADCFB0
:100D000033DDA99A80E0A9CF8091EE00811112C055
:100D10008B8190E0982F88272A81822BAA2797FD24
:100D2000A095BA2F8093EA009093EB00A093EC007B
:100D3000B093ED003C812D81822F8F708093E50070
:100D4000822F807F40E1849FC0011124830F911D79
:100D50009093E7008093E60020FD8093E4008F816C
:100D600090E0982F88272E81822B9093E900809322
:100D7000E80081E08093F0008FEF6FCF8091EE006C
:100D8000811112C08B8190E0982F88272A81822BB5
:100D9000AA2797FDA095BA2F8093EA009093EB00C5
:100DA000A093EC00B093ED001092E7001092E600E3
:100DB0001092E5008F8190E0982F88272E81822B5A
:100DC0009093E9008093E80084E08093F0008FEF37
:100DD00044CFD2DC8093F10081E03FCF81E080936B
:100DE000EE008A819B81AC81BD818093EA00909363
:100DF000EB00A093EC00B093ED0080E02ECF8B8150
:100E000090E0982F88272A81822BAA2797FDA0950A
:100E1000BA2F8093EA009093EB00A093EC00B0937C
:100E2000ED008F8190E0982F88272E81822B909360
:100E3000E9008093E80085E08093F0008FEF0DCF0C
:100E40008A818093EF001092F10081E006CF8B81C0
:100E500090E0982F88272A81822BAA2797FDA095BA
:100E6000BA2F8093EA009093EB00A093EC00B0932C
:100E7000ED008F8190E0982F88272E81822B909310
:100E8000E9008093E80086E08093F0008FEFE5CEE4
:100E90008B8190E0982F88272A81822B90932B01B9
:100EA00080932A01C29ABA9A83E0EFDDC298A9988A
:100EB00080E1EBDDF6DD80E0D0CE83E08093F100D1
:100EC0001092F2001092F3001092F40084E0C5CE6C
:100ED00080ECF7DD80E0F5DD8AE0D7DDC29A85E0C1
:100EE000D4DDC29885E0D1DD87B3837D87BB88B32D
:100EF000837D88BBA99A80E0B0CE06DE8093F100A6
:100F000081E0ABCE8A81DDDD80E0A7CE8F8190E0ED
:100F1000982F88272E81822B9093E9008093E800F8
:100F20008A818093E50088E08093F000109263004E
:100F30008FEF93CEF4D38093F10081111FC0A99855
:100F400081E08BCEBE016E5F7F4F44E050E08AEEC1
:100F500090E042D58F8190E0982F88272E81822BB8
:100F60009093E9008093E80087E08093F0008FEF92
:100F700074CEA99A8A8144D480E06FCE81E06DCE90
:100F8000CF92DF92FF920F931F93CF93DF931F9225
:100F9000CDB7DEB7D82EC92EF62E3091F000353001
:100FA00009F45BC0F0F58EEF830F823008F07BC050
:100FB000662309F495C08091EA009091EB00A0911E
:100FC000EC00B091ED000D2D1C2D2FEF260F6801C8
:100FD000C20ED11C1EC008DDF80180838091EA009A
:100FE0009091EB00A091EC00B091ED000196A11D55
:100FF000B11D8093EA009093EB00A093EC00B093B6
:10100000ED000C151D0509F450C03091F0000F5F84
:101010001F4F323001F7BC01CD01FCDBF8018083AA
:10102000DDCF373009F03FC082D136D28091F90050
:1010300081115AC06091EA007091EB008091EC0040
:101040009091ED002F2D4D2D5C2D32D4898367D1E9
:101050008981882379F180E01DC0462F682F792F80
:101060008091EA009091EB0068DD8091EA00909118
:10107000EB00A091EC00B091ED008F0D911DA11D32
:10108000B11D8093EA009093EB00A093EC00B09325
:10109000ED008F2D0F90DF91CF911F910F91FF9059
:1010A000DF90CF9008958FEFF5CFF7E0FF15C0F4F4
:1010B0008F2DF0CF8091EA009091EB00A091EC0091
:1010C000B091ED008F0D911DA11DB11D8093EA001F
:1010D0009093EB00A093EC00B093ED008F2DDACF4E
:1010E0001092F0008F2DD6CFB3D2A4CFEF92FF9203
:1010F0000F931F93CF93DF93382F792F162F2091C3
:10110000F000243009F465C008F459C0263031F1EC
:10111000283009F056C0E62EF12CC09163008C2FC8
:1011200090E0A701632F8C599F4F56D41C0F10934A
:1011300063008091E8009091E9008E199F099093D7
:10114000E9008093E800892B09F4D1C080E0DF91A9
:10115000CF911F910F91FF90EF900895462F682F28
:101160008091EA009091EB00F2DC8091EA0090918E
:10117000EB00A091EC00B091ED00810F911DA11D3D
:10118000B11D8093EA009093EB00A093EC00B09324
:10119000ED008091E8009091E900811B9109909306
:1011A000E9008093E800892B89F61092F00081E035
:1011B000DF91CF911F910F91FF90EF900895213013
:1011C00041F08FEFDF91CF911F910F91FF90EF9042
:1011D0000895112309F482C08091EA009091EB00F8
:1011E000A091EC00B091ED00C32FD72F1150AE01AC
:1011F000410F511D8A01F12C4DC02091E600309124
:10120000E700232B09F04FC021E04881BC01CD014C
:1012100036DB2091E8003091E9002150310930930C
:10122000E9002093E800232BE1F41092F000809174
:10123000E50081FF35C08091E40090E02091E60058
:101240003091E7008217930759F16091EA0070919D
:10125000EB008091EC009091ED0048816EDBFF2463
:10126000F3948091EA009091EB00A091EC00B09192
:10127000ED000196A11DB11D8093EA009093EB0053
:10128000A093EC00B093ED00C017D10741F120917D
:10129000F0002196213009F4B0CF6881CADBB9CFC4
:1012A000FF24F394DECF20E04881BC01CD01E7DAD2
:1012B0008091E40081508093E4008111AACF609175
:1012C000EA007091EB008091EC009091ED00488174
:1012D00034DB8091E6008093E4009BCFF12C8F2DCE
:1012E000DF91CF911F910F91FF90EF9008951FD044
:1012F000D3D08091E50080FF04C08091F900811176
:10130000A7D16091630084E690E0DBD08091E50096
:1013100081FF03C081E08093F90001D046CFC59AD8
:10132000C29887B3846287BB89E185BD0895C59A59
:10133000C29887B3846287BB89E085BD089585B56F
:1013400080710895C39A0895C3980895C59AC29864
:1013500087B3846287BB089588B38B7D88BB87B3CE
:10136000846287BB0895C29887B38B7D87BBC5987D
:10137000089586B3829581700895082E8295802500
:10138000082E8695869580258F5F869581700895B5
:10139000C39860FF57C0C59AC29897B3946297BB31
:1013A0004CE04A95F1F7C39A9CE09A95F1F728E052
:1013B00030E091E010C0C59AC29847B3446247BB81
:1013C0004CE04A95F1F7C39A4CE04A95F1F7990F32
:1013D0002150310959F0C398492F482361F748B388
:1013E0004B7D48BB47B3446247BBEACFC39861FF1C
:1013F0004CC0C59AC29887B3846287BB8CE08A953B
:10140000F1F7C39A9CE09A95F1F7C39862FF21C067
:10141000C59AC29887B3846287BB4CE04A95F1F7BE
:10142000C39A8CE08A95F1F7C398C59AC29887B39E
:10143000846287BB8CE08A95F1F7C39A9CE09A9509
:10144000F1F7089598B39B7D98BB97B3946297BBCF
:10145000A7CF88B38B7D88BB87B3846287BB9CE0B2
:101460009A95F1F7C39A4CE04A95F1F7C39888B37F
:101470008B7D88BB87B3846287BB8CE08A95F1F74C
:10148000C39A9CE09A95F1F7089588B38B7D88BB49
:1014900087B3846287BBB2CF6FEF8FEF79CF60E005
:1014A00080E076CF982F092E92959025092E96955B
:1014B000969590259F5F91FF02C066E069CF64E03A
:1014C00067CF0F931F93CF93DF93EC01662361F0F7
:1014D0006150062F10E00F5F1F4F080F191F8991F1
:1014E000E1DFC017D107D9F7DF91CF911F910F919D
:1014F000089511C0C398C29897B39B7D97BBC598B8
:101500002CE02A95F1F7C39A96B34CE04A95F1F78F
:1015100094FF05C081508111EDCF81E0089588E0EE
:1015200090E021E030E0C398ECE0EA95F1F7C39A4F
:10153000B499322BFCE0FA95F1F7220F019799F755
:10154000FB013083C398FCE0FA95F1F7C39A86B3A8
:101550002CE02A95F1F7032E32953025032E36958F
:1015600036953025829581703F5F369531708317AF
:1015700091F0C3989CE09A95F1F7C39A82E0ECE071
:10158000EA95F1F7C398FCE0FA95F1F7C39A4CE0BD
:101590004A95F1F70895C3988CE08A95F1F7C39ABC
:1015A000B49902C083E0EBCF2CE02A95F1F7C39801
:1015B0004CE04A95F1F7C39AB49B02C080E0E7CFB4
:1015C00083E0E5CFCF92DF92EF92FF920F931F93CC
:1015D000CF93DF9300D000D01F92CDB7DEB76A0162
:1015E0002CE029836A837B838C839D838E010E5F2D
:1015F0001F4F7E0186E0E80EF11C8CE053DF0E15D4
:101600001F0539F0F80181918F014CDF0E151F0580
:10161000C9F7B60188EC6DDF182F60E080E0B8DE16
:101620006FEF8FEFB5DE60E080E0B2DE6FEF8FEF3F
:10163000AFDE812F0F900F900F900F900F90DF91E2
:10164000CF911F910F91FF90EF90DF90CF90089571
:101650001F93CF93DF931F92CDB7DEB714E602C07E
:101660001150A1F0AE014F5F5F4F6FEC71E080E071
:1016700091E0A8DF8111F4CF998197FDF1CF10920D
:10168000F9000F90DF91CF911F91089584E00F90A2
:10169000DF91CF911F910895EF92FF920F931F93C7
:1016A000CF93DF9300D000D000D0CDB7DEB72CE4CD
:1016B00029836A837B838C839D834E838E010E5F97
:1016C0001F4F7E0187E0E80EF11C8CE403C0F80197
:1016D00081918F01E7DE0E151F05C9F780E0269680
:1016E0000FB6F894DEBF0FBECDBFDF91CF911F9133
:1016F0000F91FF90EF900895CF93811108C0C0E043
:1017000081ECD0DE8C2FCEDE80E0CF910895C9E54C
:1017100081ECC8DE8C2FC6DE80E0CF910895EF9279
:10172000FF920F931F93CF93DF93CDB7DEB7299727
:101730000FB6F894DEBF0FBECDBF89E085BD80E255
:1017400083BDC39A88B38B7C88BB87B38C6087BB0F
:1017500087B38F7C87BBC39888B38B7D88BB87B3E7
:10176000846287BB89E491E00197F1F700C0000033
:10177000C59AC29887B3846287BBC39A94E09A954E
:10178000F1F76FEF8FEF04DE6FEF8FEF01DE81E097
:10179000B3DF80EE898348E050E068E770E0CE0177
:1017A000029611D18E010F5F1F4FFE013A967F0105
:1017B000F80181918F0176DE0E151F05C9F76FEFD5
:1017C0008FEFE6DD82EC6EDE83E06CDE6FEF8FEF95
:1017D000DFDD3EDF811107C0C59AC29897B39462DE
:1017E00097BB99E195BD29960FB6F894DEBF0FBE61
:1017F000CDBFDF91CF911F910F91FF90EF90089592
:10180000CF93C82FC59AC29897B3946297BB89E0CB
:1018100085BD6FEF8FEFBCDD80E06EDF97B3937C0B
:1018200097BB98B3937C98BBC13069F0C23049F440
:10183000BB9AC39887EB9BE00197F1F700C00000CB
:10184000C39ACF910895BB9AC398CF910895EF9210
:10185000FF920F931F93CF93DF9300D000D01F927E
:10186000CDB7DEB72BE629836A837B838C839D8388
:101870008E010E5F1F4F7E0186E0E80EF11C8BE6A5
:1018800011DE0E151F0539F0F80181918F010ADE76
:101890000E151F05C9F780E00F900F900F900F9065
:1018A0000F90DF91CF911F910F91FF90EF900895CE
:1018B0006F927F928F929F92AF92BF92CF92DF9260
:1018C000EF92FF920F931F93CF93DF934B015C0135
:1018D0006A01722E04E110E066246A94620E43E409
:1018E0006AEC71E080E091E0D7DEC501B401AFDFC2
:1018F00081E08715B8F580EAD5DD862DD3DD84E259
:10190000D1DDE62CF12C8FEFE81AF80AEC0CFD1C67
:10191000E60104C02196CE15DF05B9F1BE0188ECC1
:10192000E8DD182F8823B1F360E080E031DD6FEF50
:101930008FEF2EDD60E080E02BDD6FEF8FEF28DD95
:10194000015069F6812FDF91CF911F910F91FF9088
:10195000EF90DF90CF90BF90AF909F908F907F904F
:101960006F90089584E29EDD7110CBCF60E080E03F
:101970000FDD6FEF8FEF0CDD60E080E009DD6FEFD2
:101980008FEF06DD1111DCCFDDCF60E080E000DD00
:101990006FEF8FEFFDDC60E080E0FADC6FEF8FEF40
:1019A000F7DCD0CF12BA18BA8BEF81BB8FEF87BBB1
:1019B00017BA83E084BB9EEF95BB83BFA4D4789411
:1019C0007BD37AD3FDCFFB01DC0102C005900D92E1
:1019D00041505040D8F708956817790768F4FB0123
:1019E000DC01E40FF51FA40FB51F02C002900E9298
:1019F00041505040D8F7089500C0FB01DC0102C0FF
:101A000001900D9241505040D8F70895F894FFCFBF
:021A1000FF5A7B
:00000001FF
