:1000000046C0A8C15FC05EC05DC05CC05BC05AC0D6
:1000100059C058C057C056C055C054C053C052C034
:1000200051C050C04FC04EC04DC04CC04BC04AC064
:1000300049C048C0090212000101008019090400EA
:1000400000000000000012011001FF000008C016AF
:10005000DC050401010200010E03550053004200BB
:100060006100730070001C037700770077002E009A
:10007000660069007300630068006C002E00640075
:10008000650004030904FF88D8CD45AB891211240B
:100090001FBECFEFD4E0DEBFCDBF11E0A0E0B1E0E6
:1000A000E0E5FAE102C005900D92A230B107D9F760
:1000B00011E0A2E0B1E001C01D92AC3CB107E1F754
:1000C00091DCC4CC9DCFCF93DF936091AA016350A4
:1000D00067FD14C02091A7018CE090E0821B91097C
:1000E000EC01C255DE4F8091A6018D3209F455C056
:1000F0008091020187FD97C01092AA0180910101B1
:1001000084FF3EC0609100016F3FD1F1693008F477
:100110006CC068506093000190919A0188E889272B
:1001200080939A0168E08091020187FD1CC02091B4
:10013000A8013091A90186FF6DC0ABE9B1E0F901DA
:10014000962F84918D9331969150D9F78FEF860F2A
:1001500090E00196280F391F3093A9012093A80140
:10016000C4E0C60F4DC08BE991E014D7682F8930E9
:1001700008F49FC08FEF80930001CEE1C09301018E
:1001800094E183B1837031F49150D9F71092AB01AF
:100190001092A501DF91CF910895683009F0ACCF9E
:1001A00083EC80939A018AE5809301011092020109
:1001B0008881807609F041C08A811092A3019981DB
:1001C000911146C01092A40123EA31E082E03093FD
:1001D000A9012093A8019F81911104C09E819817C5
:1001E00008F4892F8093000187CF1092000190912D
:1001F0009A0188E8892780939A01611194CFC4E01D
:100200008BE991E0A3D0CC3009F4B8CF8FEF809385
:100210000001B4CFD901EBE9F1E0962F8D918193E4
:100220009150E1F793CFCE016BD78F3F01F1882337
:1002300009F462CF109200015FCFCE01A5D48F3FA9
:1002400051F6988197FD1DC090E890930201CACFA6
:10025000953089F0963009F19830D9F0993099F0BD
:1002600081E09A3009F080E023EA31E0B0CF8EE1FE
:100270008093010141CF8093AB0123EA31E080E01C
:10028000A6CF8E81E1CF8093AD0123EA31E080E0FB
:100290009ECF2DEA31E081E09ACF9B819130F1F041
:1002A0009230A1F0933041F080E090E4909302010D
:1002B00092CFC4E0C80FA4CF811118C082E890E0AB
:1002C0009093A9018093A80184E0EFCF84E390E0AC
:1002D0009093A9018093A80182E1E7CF86E490E0A2
:1002E0009093A9018093A80182E1DFCF813051F082
:1002F0008230D1F688E590E09093A9018093A8011F
:100300008EE0D3CF86E690E09093A9018093A80178
:100310008CE1CBCFE9E6F0E0808183608083E89ACE
:100320000895A82FB92F80E090E041E050EA609551
:1003300030E009C02D9182279795879510F084278A
:100340009527305EC8F36F5FA8F30895EADF8D93B9
:100350009D930895CF93CFB7CF93C395189BE9F79B
:10036000189B09C0189B07C0189B05C0189B03C0A9
:10037000189B01C0A1C0DF93C091A701DD27C25522
:10038000DE4F189B02C0DF91EBCF2F930F931F938B
:1003900003B12FEF00FB20F94F933F9313B14FEFC1
:1003A000012700FB21F93BE031C04E7F012F13B143
:1003B000216028C0102F4D7F2260000003B129C0AA
:1003C0004B7F2460012F000013B12BC013B1477F76
:1003D00028602AC04F7E03B120612CC04F7D13B12D
:1003E00020622FC04F7B03B1206432C0422703B18B
:1003F00049934FEF0000102710FB20F913B1137041
:10040000C9F1297F91F2012700FB21F903B1237F74
:1004100089F2315058F1102710FB22F913B1277ED1
:1004200079F2012700FB23F92F7C81F203B1102719
:1004300010FB24F92F7971F200C013B1012700FBE2
:1004400025F92F7359F200C003B1102710FB26F9CC
:10045000223040F200C013B1012700FB27F92430FD
:1004600028F64F77206813B10000F9CF11E01CBBCC
:10047000002717C03B503195C31BD04011E01CBB77
:100480000881033CE9F00B34D9F02091A5011981D2
:10049000110F1213EDCF093641F10D3211F0013E6B
:1004A00039F70093AC013F914F911F910F912F911C
:1004B000DF91CCB3C0FD51CFCF91CFBFCF91189575
:1004C0002091AC01222379F31091AA01112311F597
:1004D000343012F13093AA012093A6011091A701A4
:1004E0003BE0311B3093A70117C00091AA010130F6
:1004F0008CF40AE53091010134FD10C00093010134
:10050000CAE9D1E00FC02795A8F45150A9F4220FF1
:100510000000F9CF4AE503C042ED01C0432FC4E11A
:10052000D0E032E014B11360289A14B905B120E488
:1005300013E05F93012756E005B9279520F4515049
:1005400021F4220FF9CF012756E000003B5A05B9EC
:10055000D0F2279528F4515029F4220F0000F9CF4A
:10056000012756E0279505B920F4515021F4220FB8
:10057000F9CF012756E02991332305B921F60C7FE5
:100580001091AB01110FC651D04005B911F0109375
:10059000A50111E01CBB016014B11C7F402F4C7FF2
:1005A0005F9100C000C005B914B945B97CCF582F80
:1005B00048E080E057FD18C02B98550F880F1C9914
:1005C0008F5F2D9A36B52091C90196B5931B92176E
:1005D000E0F32D9836B52091C90196B5931B92177B
:1005E000E0F3415039F708952B9AE7CF8EBD0DB453
:1005F00007FEFDCF8EB50895DC01CB0121E1B69554
:10060000A795979587952A95D1F72091C801281726
:10061000D9F08093C801E091C501F091C6018DE445
:100620000995E091C501F091C60180E00995E0913E
:10063000C501F091C6018091C8010995E091C501FD
:10064000F091C60180E0099408958091C7018CBDA6
:100650008091C4018DBD08958823A1F08830D0F524
:1006600027ED32E03093C6012093C5018430F1F0CC
:1006700008F18630C1F030F18730A1F483E0809337
:10068000C901089586EF92E09093C6018093C50159
:1006900081E08093C90182E58093C70181E0809366
:1006A000C401089580EC8093C901089588E1809386
:1006B000C9010895823051F08330A1F780E380931F
:1006C000C90108958CE08093C901089580E6809364
:1006D000C901089526EF32E03093C6012093C50189
:1006E0001092C40191E09093C901893059F070F0E3
:1006F0008B3021F08C3079F69093C40181E58093A2
:10070000C701089582E58093C7010895883019F6DE
:1007100083E58093C701089526B59091C90186B5F8
:10072000821B8917E0F3089584B18C6284B92A98FA
:100730002D9826B59091C90186B5821B8917E0F3E3
:100740002A9A26B59091C90186B5821B8917E0F3D4
:100750002A988091C5019091C601865F924021F050
:100760008FEF8093C80108958091C7018CBD80915F
:10077000C4018DBD8FEF8093C801089584B1837D3E
:1007800084B985B1837D85B91CBC0895CF93DF936F
:10079000C0E2E091C501F091C6018CEA0995E091B3
:1007A000C501F091C60183E50995E091C501F0917D
:1007B000C60180E00995D82FE091C501F091C601EE
:1007C00080E00995D33561F11CBC26B59091C90133
:1007D00086B5821B8917E0F32A9A26B59091C90144
:1007E00086B5821B8917E0F32A9826B59091C90136
:1007F00086B5821B8917E0F38091C5019091C601EF
:10080000865F924031F0C15021F681E0DF91CF91B7
:1008100008958091C7018CBD8091C4018DBDF3CF37
:1008200080E0DF91CF910895CF92DF92EF92FF9217
:100830006B017C01E1DE8C2D8170880F880F880FA1
:10084000E091C501F091C60180620995D701C6010A
:1008500029E0B695A795979587952A95D1F7E091C8
:10086000C501F091C6010995D701C601B695A795B6
:1008700097958795E091C501F091C6010995E091A2
:10088000C501F091C60180E0FF90EF90DF90CF901E
:100890000994CF92DF92EF92FF920F931F93CF9321
:1008A000DF931F92CDB7DEB76B017C01142F298334
:1008B000A3DE9C2D9170892F880F880F880FE091FF
:1008C000C501F091C60180640995D701C60129E0F0
:1008D000B695A795979587952A95D1F7E091C5018B
:1008E000F091C6010995D701C601B695A7959795D0
:1008F0008795E091C501F091C6010995E091C50188
:10090000F091C601812F099529812223A9F01F3773
:1009100089F006B51EE1C701B60186DF8F3761F4A5
:1009200086B5801B8D3310F006B511501111F3CF31
:1009300081E003C08FE0B3D080E00F90DF91CF91D2
:100940001F910F91FF90EF90DF90CF900895CF927D
:10095000DF92EF92FF920F931F93CF93DF931F923B
:10096000CDB7DEB76B017C01498346DEE091C5015E
:10097000F091C6018CE40995D701C60129E0B6952E
:10098000A795979587952A95D1F7E091C501F091A4
:10099000C6010995D701C601B695A7959795879584
:1009A000E091C501F091C6010995E091C501F09172
:1009B000C60180E0099549814F3FE1F006B51EE18F
:1009C000C701B60131DF8F3F99F486B5801B8D33A7
:1009D00010F006B511501111F3CF81E00F90DF91A7
:1009E000CF911F910F91FF90EF90DF90CF900895DE
:1009F00080E0F4CF8FE053D080E0F0CF1F93CF930F
:100A0000DF931F92CDB7DEB7182FE091C501F091AB
:100A1000C60180EA99830995E091C501F091C6016C
:100A20009981892F0995E091C501F091C601812F27
:100A30000995E091C501F091C60180E00F90DF912A
:100A4000CF911F9109941F93CF93DF9300D0CDB71F
:100A5000DEB7182FE091C501F091C60180EC6A83E2
:100A600099830995E091C501F091C6019981892F7B
:100A70000995E091C501F091C601812F0995E0919A
:100A8000C501F091C6016A81862F09958EE107D0D4
:100A900080E00F900F90DF91CF911F9108958823F0
:100AA00049F030E026B596B5921B9C33E0F33F5FEA
:100AB0003813F8CF0895259A23982B9A50E217D02F
:100AC0005A95E9F70895AC0188E605D0842F03D044
:100AD00089E601D0852F0FD028E030E0382780FB51
:100AE000869506D02A95D1F730FB02D000D06894C5
:100AF00023982B9A16F02B98239AE091CA01F09133
:100B0000CB013197F0F72D9AE3B1E3FBE091CA01F5
:100B1000F091CB013197F0F72D98089520ECE7DFA5
:100B200046F42A95E1F780E02AE1E5DF2A95E9F726
:100B3000DECF28E030E0DBDF869587F938272A957D
:100B4000D1F7D5DF27F9322772F3D1DFD0CFDB0120
:100B5000742FB9DF84E2BFDFE1DF8D937A95D1F79F
:100B60000895DB01742FAFDF83EFB5DF8DE1B3DFD5
:100B700084E6B1DF8D91AFDF82E7ADDFCFDF807834
:100B8000D9F77A9589F70895CF93DF93EC0199818E
:100B90009130F1F1923009F4BDC0933009F470C086
:100BA000943009F440C0973009F48FC0953009F4AF
:100BB0001AC1963009F4B2C0983009F4E9C09930EE
:100BC00009F416C19A3009F445C19B3009F46AC191
:100BD0009C3009F487C19D3009F499C19E3009F415
:100BE0009BC19F3009F415C1903109F43AC19F3778
:100BF00009F46DC1913109F4A7C1923109F4C3C15F
:100C0000943109F48DC1933109F4A6C180E02FC05D
:100C1000329B58C080918F011FDD10928E01419848
:100C200083DD80E024C080918E01811112C08B8110
:100C300090E0982F88272A81822BAA2797FDA095DC
:100C4000BA2F80938A0190938B01A0938C01B0936B
:100C50008D018F8190E0982F88272E81822B909391
:100C600089018093880182E0809390018FEF21E9D0
:100C700031E03093A9012093A801DF91CF9108952D
:100C8000E091C501F091C6018A8109958093910197
:100C9000E091C501F091C6018B8109958093920185
:100CA000E091C501F091C6018C8109958093930173
:100CB000E091C501F091C6018D8109958093940161
:100CC00084E0D5CF85E0C8DCA8CF80918E0181116A
:100CD00012C08B8190E0982F88272A81822BAA2727
:100CE00097FDA095BA2F80938A0190938B01A093D2
:100CF0008C01B0938D018F8190E0982F88272E81F1
:100D0000822B909389018093880183E080939001E6
:100D10008FEFADCF33DD419A80E0A9CF80918E0176
:100D2000811112C08B8190E0982F88272A81822B15
:100D3000AA2797FDA095BA2F80938A0190938B01E3
:100D4000A0938C01B0938D013C812D81822F8F70F7
:100D500080938501822F807F40E1849FC001112410
:100D6000830F911D909387018093860120FD8093CE
:100D700084018F8190E0982F88272E81822B909379
:100D800089018093880181E0809390018FEF6FCF7C
:100D900080918E01811112C08B8190E0982F88275D
:100DA0002A81822BAA2797FDA095BA2F80938A01CA
:100DB00090938B01A0938C01B0938D0110928701C9
:100DC00010928601109285018F8190E0982F8827DC
:100DD0002E81822B909389018093880184E08093F7
:100DE00090018FEF44CFD2DC8093910181E03FCF1F
:100DF00081E080938E018A819B81AC81BD8180934B
:100E00008A0190938B01A0938C01B0938D0180E0B7
:100E10002ECF8B8190E0982F88272A81822BAA27BA
:100E200097FDA095BA2F80938A0190938B01A09390
:100E30008C01B0938D018F8190E0982F88272E81AF
:100E4000822B909389018093880185E080939001A3
:100E50008FEF0DCF8A8180938F011092910181E0F5
:100E600006CF8B8190E0982F88272A81822BAA2792
:100E700097FDA095BA2F80938A0190938B01A09340
:100E80008C01B0938D018F8190E0982F88272E815F
:100E9000822B909389018093880186E08093900152
:100EA0008FEFE5CE8B8190E0982F88272A81822BC7
:100EB0009093CB018093CA012A9A229A83E0EFDDB6
:100EC0002A98419880E1EBDDF6DD80E0D0CE83E02A
:100ED00080939101109292011092930110929401CB
:100EE00084E0C5CE80ECF7DD80E0F5DD8AE0D7DD7B
:100EF0002A9A85E0D4DD2A9885E0D1DD84B1837D0E
:100F000084B985B1837D85B9419A80E0B0CE06DE93
:100F10008093910181E0ABCE8A81DDDD80E0A7CEB8
:100F20008F8190E0982F88272E81822B90938901C2
:100F3000809388018A818093850188E08093900165
:100F4000109203018FEF93CEFDD380939101811115
:100F50001FC0419881E08BCEBE016E5F7F4F44E0A1
:100F600050E08AE891E058D58F8190E0982F88274B
:100F70002E81822B909389018093880187E0809352
:100F800090018FEF74CE419A8A8156D480E06FCE63
:100F900081E06DCECF92DF92FF920F931F93CF939C
:100FA000DF931F92CDB7DEB7D82EC92EF62E309123
:100FB0009001353009F45BC0F0F58EEF830F82307D
:100FC00008F07BC0662309F495C080918A01909156
:100FD0008B01A0918C01B0918D010D2D1C2D2FEF57
:100FE000260F6801C20ED11C1EC008DDF8018083E7
:100FF00080918A0190918B01A0918C01B0918D011B
:101000000196A11DB11D80938A0190938B01A0933D
:101010008C01B0938D010C151D0509F450C0309161
:1010200090010F5F1F4F323001F7BC01CD01FCDB97
:10103000F8018083DDCF373009F03FC086D13FD241
:101040008091990181115AC060918A0170918B0140
:1010500080918C0190918D012F2D4D2D5C2D48D4C8
:10106000898367D18981882379F180E01DC0462F6B
:10107000682F792F80918A0190918B0168DD809192
:101080008A0190918B01A0918C01B0918D018F0DFF
:10109000911DA11DB11D80938A0190938B01A09396
:1010A0008C01B0938D018F2D0F90DF91CF911F9107
:1010B0000F91FF90DF90CF9008958FEFF5CFF7E07D
:1010C000FF15C0F48F2DF0CF80918A0190918B0194
:1010D000A0918C01B0918D018F0D911DA11DB11DAD
:1010E00080938A0190938B01A0938C01B0938D0122
:1010F0008F2DDACF109290018F2DD6CFBCD2A4CFF6
:10110000EF92FF920F931F93CF93DF93382F792F96
:10111000162F20919001243009F465C008F459C0BD
:10112000263031F1283009F056C0E62EF12CC0915E
:1011300003018C2F90E0A701632F8C5F9E4F6CD42E
:101140001C0F1093030180918801909189018E19E1
:101150009F099093890180938801892B09F4D1C05C
:1011600080E0DF91CF911F910F91FF90EF90089554
:10117000462F682F80918A0190918B01F2DC80913B
:101180008A0190918B01A0918C01B0918D01810F0A
:10119000911DA11DB11D80938A0190938B01A09395
:1011A0008C01B0938D018091880190918901811B00
:1011B00091099093890180938801892B89F6109277
:1011C000900181E0DF91CF911F910F91FF90EF90FF
:1011D0000895213041F08FEFDF91CF911F910F9152
:1011E000FF90EF900895112309F482C080918A0145
:1011F00090918B01A0918C01B0918D01C32FD72FBD
:101200001150AE01410F511D8A01F12C4DC02091AA
:10121000860130918701232B09F04FC021E04881DE
:10122000BC01CD0136DB209188013091890121502C
:1012300031093093890120938801232BE1F4109226
:1012400090018091850181FF35C08091840190E0FB
:1012500020918601309187018217930759F160919F
:101260008A0170918B0180918C0190918D01488150
:101270006EDBFF24F39480918A0190918B01A09101
:101280008C01B0918D010196A11DB11D80938A0141
:1012900090938B01A0938C01B0938D01C017D1075F
:1012A00041F1209190012196213009F4B0CF68815D
:1012B000CADBB9CFFF24F394DECF20E04881BC0124
:1012C000CD01E7DA809184018150809384018111FE
:1012D000AACF60918A0170918B0180918C019091CD
:1012E0008D01488134DB80918601809384019BCFFE
:1012F000F12C8F2DDF91CF911F910F91FF90EF90E7
:10130000089523D0DCD08091850180FF04C08091B6
:1013100099018111B0D16091030184E091E0E4D0A2
:101320008091850181FF03C081E08093990101D004
:1013300046CF2D9A2A9884B1846284B982E480933E
:10134000B00081E08093B10008952D9A2A9884B16D
:10135000846284B982E08093B00081E08093B10020
:1013600008958091B000807408952B9A08952B9869
:1013700008952D9A2A9884B1846284B9089585B11C
:101380008B7D85B984B1846284B908952A9884B12B
:101390008B7D84B92D98089583B1829581700895CD
:1013A000082E82958025082E8695869580258F5F4C
:1013B0008695817008952B9860FF57C02D9A2A98C2
:1013C00094B1946294B94CE04A95F1F72B9A9CE061
:1013D0009A95F1F728E030E091E010C02D9A2A9814
:1013E00044B1446244B94CE04A95F1F72B9A4CE081
:1013F0004A95F1F7990F2150310959F02B98492F4F
:10140000482361F745B14B7D45B944B1446244B9C5
:10141000EACF2B9861FF4CC02D9A2A9884B1846240
:1014200084B98CE08A95F1F72B9A9CE09A95F1F7B4
:101430002B9862FF21C02D9A2A9884B1846284B9C6
:101440004CE04A95F1F72B9A8CE08A95F1F72B98AE
:101450002D9A2A9884B1846284B98CE08A95F1F738
:101460002B9A9CE09A95F1F7089595B19B7D95B9DB
:1014700094B1946294B9A7CF85B18B7D85B984B1BD
:10148000846284B99CE09A95F1F72B9A4CE04A95D6
:10149000F1F72B9885B18B7D85B984B1846284B9CD
:1014A0008CE08A95F1F72B9A9CE09A95F1F70895D4
:1014B00085B18B7D85B984B1846284B9B2CF6FEF79
:1014C0008FEF79CF60E080E076CF982F092E92954C
:1014D0009025092E9695969590259F5F91FF02C0C5
:1014E00066E069CF64E067CF0F931F93CF93DF93DC
:1014F000EC01662361F06150062F10E00F5F1F4F73
:10150000080F191F8991E1DFC017D107D9F7DF91C3
:10151000CF911F910F91089511C02B982A9894B1E3
:101520009B7D94B92D982CE02A95F1F72B9A93B1D5
:101530004CE04A95F1F794FF05C081508111EDCF41
:1015400081E0089588E090E021E030E02B98ECE025
:10155000EA95F1F72B9A1C99322BFCE0FA95F1F7FA
:10156000220F019799F7FB0130832B98FCE0FA9545
:10157000F1F72B9A83B12CE02A95F1F7032E3295DF
:101580003025032E369536953025829581703F5F44
:1015900036953170831791F02B989CE09A95F1F76E
:1015A0002B9A82E0ECE0EA95F1F72B98FCE0FA95B3
:1015B000F1F72B9A4CE04A95F1F708952B988CE0BF
:1015C0008A95F1F72B9A1C9902C083E0EBCF2CE0AF
:1015D0002A95F1F72B984CE04A95F1F72B9A1C9B32
:1015E00002C080E0E7CF83E0E5CFCF92DF92EF92B9
:1015F000FF920F931F93CF93DF9300D000D01F92E1
:10160000CDB7DEB76A012CE029836A837B838C83A4
:101610009D838E010E5F1F4F7E0186E0E80EF11C58
:101620008CE053DF0E151F0539F0F80181918F0111
:101630004CDF0E151F05C9F7B60188EC6DDF182FBA
:1016400060E080E0B8DE6FEF8FEFB5DE60E080E055
:10165000B2DE6FEF8FEFAFDE812F0F900F900F9004
:101660000F900F90DF91CF911F910F91FF90EF900E
:10167000DF90CF9008951F93CF93DF931F92CDB744
:10168000DEB714E602C01150A1F0AE014F5F5F4F0C
:101690006FEC71E080E091E0A8DF8111F4CF9981D7
:1016A00097FDF1CF109299010F90DF91CF911F918B
:1016B000089584E00F90DF91CF911F910895EF92EC
:1016C000FF920F931F93CF93DF9300D000D000D0F1
:1016D000CDB7DEB72CE429836A837B838C839D831B
:1016E0004E838E010E5F1F4F7E0187E0E80EF11CD6
:1016F0008CE403C0F80181918F01E7DE0E151F0510
:10170000C9F780E026960FB6F894DEBF0FBECDBFB6
:10171000DF91CF911F910F91FF90EF900895CF939C
:10172000811108C0C0E081ECD0DE8C2FCEDE80E0DD
:10173000CF910895C9E581ECC8DE8C2FC6DE80E02C
:10174000CF910895EF92FF920F931F93CF93DF9362
:10175000CDB7DEB729970FB6F894DEBF0FBECDBF69
:1017600082E08093B00081E08093B10080E28093BA
:10177000B3002B9A85B18B7C85B984B18C6084B918
:1017800084B18F7C84B92B9885B18B7D85B984B168
:10179000846284B989E491E00197F1F700C0000008
:1017A0002D9A2A9884B1846284B92B9A94E09A95F0
:1017B000F1F76FEF8FEFFFDD6FEF8FEFFCDD81E073
:1017C000AEDF80EE898348E050E066E870E0CE014D
:1017D000029619D18E010F5F1F4FFE013A967F01CD
:1017E000F80181918F0171DE0E151F05C9F76FEFAA
:1017F0008FEFE1DD82EC69DE83E067DE6FEF8FEF74
:10180000DADD39DF81110BC02D9A2A9894B19462E8
:1018100094B992E49093B00091E09093B10029962E
:101820000FB6F894DEBF0FBECDBFDF91CF911F91F1
:101830000F91FF90EF900895CF93C82F2D9A2A987B
:1018400094B1946294B982E08093B00081E0809377
:10185000B1006FEF8FEFAFDD80E061DF94B1937C7B
:1018600094B995B1937C95B9C13069F0C23049F40F
:10187000239A2B9887EB9BE00197F1F700C00000BB
:101880002B9ACF910895239A2B98CF910895EF9298
:10189000FF920F931F93CF93DF9300D000D01F923E
:1018A000CDB7DEB72BE629836A837B838C839D8348
:1018B0008E010E5F1F4F7E0186E0E80EF11C8BE665
:1018C00004DE0E151F0539F0F80181918F01FDDD51
:1018D0000E151F05C9F780E00F900F900F900F9025
:1018E0000F90DF91CF911F910F91FF90EF9008958E
:1018F0006F927F928F929F92AF92BF92CF92DF9220
:10190000EF92FF920F931F93CF93DF934B015C01F4
:101910006A01722E04E110E066246A94620E43E4C8
:101920006AEC71E080E091E0CADEC501B401AFDF8E
:1019300081E08715B8F580EAC8DD862DC6DD84E232
:10194000C4DDE62CF12C8FEFE81AF80AEC0CFD1C34
:10195000E60104C02196CE15DF05B9F1BE0188EC81
:10196000DBDD182F8823B1F360E080E024DD6FEF2A
:101970008FEF21DD60E080E01EDD6FEF8FEF1BDD7C
:10198000015069F6812FDF91CF911F910F91FF9048
:10199000EF90DF90CF90BF90AF909F908F907F900F
:1019A0006F90089584E291DD7110CBCF60E080E00C
:1019B00002DD6FEF8FEFFFDC60E080E0FCDC6FEFBB
:1019C0008FEFF9DC1111DCCFDDCF60E080E0F3DCDC
:1019D0006FEF8FEFF0DC60E080E0EDDC6FEF8FEF1A
:1019E000EADCD0CF1BB815B88BEF8AB98FEF84B97A
:1019F00014B883E087B99EEF98B985BD8BD47894ED
:101A000062D361D3FDCFFB01DC0102C005900D92D2
:101A100041505040D8F708956817790768F4FB01E2
:101A2000DC01E40FF51FA40FB51F02C002900E9257
:101A300041505040D8F7089500C0FB01DC0102C0BE
:101A400001900D9241505040D8F70895F894FFCF7F
:021A5000FF5A3B
:00000001FF
